S0180000416E616C6F672D6465762D6D61737465722E73333765
S113000000800020B1010000DD010000DD010000DE
S1130010DD010000DD010000DD010000DD01000064
S1130020DD010000DD010000DD010000DD01000054
S1130030DD010000DD010000DD010000DD01000044
S1130040DD010000DD010000DD010000DD01000034
S1130050DD010000DD010000DD010000DD01000024
S1130060DD010000DD010000DD010000A919000030
S1130070DD010000DD010000DD010000DD01000004
S1130080DD010000DD010000DD010000DD010000F4
S1130090DD010000DD010000DD010000DD010000E4
S11300A0DD010000DD010000DD010000DD010000D4
S11300B0DD010000DD010000DD010000DD010000C4
S11300C0951C0000DD010000DD010000DD010000E1
S11300D0DD010000DD010000DD010000DD010000A4
S11300E010B5054C237833B9044B13B10448AFF36E
S11300F000800123237010BD68020020000000006E
S11301000C240000084B10B51BB108480849AFF394
S113011000800848036803B910BD074B002BFBD0CF
S1130120BDE81040184700BF000000000C24000088
S11301306C0200206402002000000000154B002B1C
S113014008BF134B9D46A3F5803A00218B460F460A
S11301501348144A121A02F01DF90F4B002B00D059
S113016098470E4B002B00D0984700200021040034
S11301700D000D48002802D00C48AFF3008002F0B7
S1130180E3F82000290001F0A5FD02F0C9F800BF42
S113019000000800008000200000000000000000B3
S11301A0680200209402002000000000000000000B
S11301B0064880470649074A074B9A42BEBF51F892
S11301C0040B42F8040BF8E7FFF7B8FF5D030000E7
S11301D0182400000000002068020020FEE700BF91
S11301E080B400AF044BDB6C1B0EDBB21846BD467B
S11301F05DF8047B704700BFB081E00F80B582B02A
S113020000AF00F01FF87860074B5B6803F00F0342
S11302101A467B68D3407B60044A7B6813607B6822
S113022018460837BD4680BD00800C40900200206F
S113023080B400AF024B1846BD465DF8047B70479E
S1130240003FAB0180B582B000AF334BDB6A03F4EF
S11302507053B3F5805F0AD0B3F5005F03D0B3F5F4
S1130260006F08D00BE02D4B1B687B6047E04FF418
S113027000437B6043E02A4B1B687B603FE0264BD6
S1130280DB6803F4E063B3F5007F1BD0B3F5007FB4
S113029005D8002B24D0B3F5807F16D02BE0B3F51E
S11302A0806F09D0B3F5A06F03D0B3F5407F06D0BB
S11302B021E01C4B7B6021E01B4B7B601EE01B4B51
S11302C07B601BE01A4B7B6018E0FFF789FF034655
S11302D0122B02D9174B7B6010E0174B7B600DE0AB
S11302E0FFF77EFF0346122B02D9144B7B6005E017
S11302F0134B7B6002E000237B6000BF00BF064B12
S11303001B6803F4E0339B0B01337A68B2FBF3F30D
S113031018460837BD4680BD00800C40040000200C
S113032000000020003FAB01406F4001809FD500DA
S1130330C0D8A70040B56400C0CF6A00804F120047
S113034040420F0080B400AF034B1B681846BD4603
S11303505DF8047B704700BF0000002080B400AF4C
S1130360054A054BD3F8883043F47003C2F888304B
S1130370BD465DF8047B704700ED00E080B400AF3B
S11303804FF400431846BD465DF8047B704700BF38
S113039080B400AF4FF47A731846BD465DF8047B11
S11303A0704700BF80B400AF034B1B681846BD46BE
S11303B05DF8047B704700BF0400002080B487B060
S11303C000AFF860B9607A60FB6803F10473DA0087
S11303D0BB6813449B007B617B697A681A601C3795
S11303E0BD465DF8047B704780B485B000AF78608B
S11303F039607B6803F10473DA003B6813449B00A3
S1130400FB60FB681B6818461437BD465DF8047B27
S1130410704700BF80B485B000AF78607B68002B64
S113042004D07B68B3F5004F00D800BF7B68B3FAF3
S113043083F3C3F11F03FB60FB6818461437BD4602
S11304405DF8047B704700BF80B400AF044BDB6CE5
S11304501B0EDBB21846BD465DF8047B704700BF37
S1130460B081E00F80B584B000AF786039607A68FD
S11304703B689A428CBF01230023DBB2FB60064831
S11304801E21FA68FFF79AFF04480821FA68FFF76B
S113049095FF1037BD4680BD00800C4004800C40A1
S11304A080B582B000AF07481E21FFF79DFF78603A
S11304B005480821FFF798FF38607B68184608371D
S11304C0BD4680BD00800C4004800C4080B582B0E5
S11304D000AF214B5B6903F4E063B3F5007F1CD0EC
S11304E0B3F5007F05D8002B25D0B3F5807F1FD04E
S11304F02AE0B3F5C06F24D0B3F5E06F1ED0B3F596
S1130500407F21D1FFF7A0FF0346122B02D9134BE2
S11305107B601CE0124B7B6019E0FFF795FF0346FC
S1130520122B02D90F4B7B6011E00F4B7B600EE066
S11305300E4B7B600BE00E4B7B6008E00D4B7B6049
S113054005E00D4B7B6002E000237B6000BF7B680D
S113055018460837BD4680BD00800C40804F12000D
S113056040420F0040B56400C0CF6A00C0D8A70065
S1130570809FD500406F4001003FAB0180B582B041
S113058000AF0D4800F05EFA0346FB70FB78072BC2
S113059005D0082B07D1FFF755FE786006E0FFF77A
S11305A095FF786002E000237B6000BF7B681846FB
S11305B00837BD4680BD00BF06000C0080B485B07E
S11305C000AF7860284BDB6B002B14BF01230023A2
S11305D0BB72254B41F67132DA63234B5B6803F03F
S11305E00703FB60FB68012B01D9042B02D1002314
S11305F0FB7202E00123FB7200BF7B681B4A93423B
S113060007D9FB7A002B01D0052300E00423FB600B
S113061016E07B68154A93420BD87B68144A9342D0
S113062007D9FB7A002B01D0032300E00123FB60F0
S113063006E0FB7A002B01D0022300E00023FB60DC
S11306400949094B5B6823F00702FB6813434B60BD
S1130650BB7A002B02D0044B0022DA631437BD4668
S11306605DF8047B704700BF00000C400048E801BF
S11306700024F40080B500AFFFF7DAFD0346184606
S1130680FFF79CFF80BD00BF90B585B000AF7860D8
S11306900023BB607B68344A934203D0334A9342BD
S11306A000D000E000BF786800F0CCF90346FB609E
S11306B07B682D4A934203D02C4A934206D00CE027
S11306C02B4B9B6A03F00303FB6006E0284B9B6AF9
S11306D003F00C039B08FB6000BFFB68032B3AD8B4
S11306E001A252F823F000BF1F070000F906000022
S11306F00107000009070000FFF740FEB8602DE085
S1130700FFF750FEB86029E0FFF778FD0446FFF7D5
S1130710C7FE0346013324FA03F3BB601EE0002343
S1130720BB607B68104A934203D07B680F4A9342B4
S113073010D10F4B9A6A7B680B498B4201D110236D
S113074000E0142322FA03F3002B03D0FFF720FE6A
S1130750B86003E002E00023BB6000BFBB6818463A
S11307601437BD4690BD00BF02001A0003001C00F0
S113077000800C4080B483B000AF7860094B5B6D9F
S113078003F00103002B00D006E000BF054B1A6DF7
S11307907B681340002BF9D10C37BD465DF8047B10
S11307A0704700BF00800C4080B586B000AF786011
S11307B00B46FB7000233B617B681B0A03F00F03AD
S11307C0013B092B46D801A252F823F00B08000084
S11307D011080000F5070000550800005508000046
S11307E01708000021080000550800005508000003
S11307F02B080000194B7B61194800F03FF80346B1
S113080018461849FFF72EFE12E0174B7B610FE0E4
S1130810164B7B610CE0164B7B6101233B6107E0C7
S1130820144B7B6110233B6102E0134B7B6100BFDF
S11308307B681B0B03F01F03FB603B69002B02D09A
S11308403869FFF797FFFB787869F9681A46FFF76C
S1130850B5FD00E000BF1837BD4680BD40800C40A8
S11308600043020000366E0108800C4044800C40B6
S113087058800C4060800C4078800C4090B585B066
S113088000AF78607B6803F47813B3F5A01F5DD0E4
S1130890B3F5A01F17D8B3F5802F34D0B3F5802F4C
S11308A005D8002B2BD0B3F5003F38D0BBE0B3F50F
S11308B0602F00F0B480B3F5801F39D0B3F5402F1A
S11308C000F0A980AFE0B3F5E01F00F08480B3F539
S11308D0E01F0AD8B3F5C01F00F08F80B3F5D01F16
S11308E021D0B3F5B01F7BD09DE0B3F5201F4ED0CF
S11308F0B3F5281F62D0B3F5181F35D093E0FFF786
S1130900A1FCF86092E0FFF79DFCF8604A4B9B68FD
S113091003F00F031A46FB68D340FB6086E0FFF741
S11309206DFCF86082E04548FFF7AEFEF8607DE0BC
S11309304248FFF7A9FEF8603F4B9B6E03F0F003BB
S11309401B091A46FB68D340FB606FE03B48FFF786
S11309509BFEF860384B9B6E03F470631B0A1A46C7
S1130960FB68D340FB6061E03448FFF78DFEF8601C
S1130970314B9B6E03F440531C0B1020FFF74AFDD0
S1130980034623441A46FB68D340FB604EE02B48E1
S1130990FFF77AFEF860284B9B6E03F440531B0B61
S11309A01A46FB68D340FB60234BDB6F03F007035D
S11309B00133FA68B2FBF3F3FB6037E01F48FFF73B
S11309C063FEF8601C4B9B6E03F003031A46FB683E
S11309D0D340FB602AE01A48FFF756FEF86025E092
S11309E01748FFF751FEF860134B1B6F03F0030326
S11309F01A46FB68D340FB6018E01148FFF744FE39
S1130A00F8600D4B1B6F03F030031B091A46FB689B
S1130A10D340FB600AE0FFF7B1FDF86006E0FFF7A2
S1130A2055FDF86002E00023FB6000BFFB68184638
S1130A301437BD4690BD00BF00800C4002001A0070
S1130A4003001C0080B485B000AF78600123FB7301
S1130A507B6803F00F03BB60BB68013B052B77D8B1
S1130A6001A252F823F000BF810A0000B70A000077
S1130A70F30A0000510B0000510B00002F0B000083
S1130A80384BDB6A03F47053B3F5805F09D0B3F5D8
S1130A90005F03D0B3F5006F06D008E00223FB73B8
S1130AA008E00323FB7305E00423FB7302E0052342
S1130AB0FB7300BF4FE02B4B9B6A03F00303022B35
S1130AC006D0032B07D0012B08D10323FB730FE0BF
S1130AD00223FB730CE00623FB7309E0214B9B6AA2
S1130AE003F48033002B02D00923FB7300E000BF22
S1130AF031E01C4B9B6A03F00C03082B06D00C2B33
S1130B0007D0042B08D10323FB730FE00223FB73EC
S1130B100CE00623FB7309E0124B9B6A03F4801379
S1130B20002B02D00923FB7300E000BF13E00D4B40
S1130B301B6803F08053002B03D0B3F1805F03D014
S1130B4009E00723FB7302E00823FB7300BF02E004
S1130B500023FB7300BFFB7B18461437BD465DF8CA
S1130B60047B704700800C4080B588B000AF78608B
S1130B700B46FB700323FB610323FB7600233B61DD
S1130B807B6803F00F03FB60FB68013B052B00F25D
S1130B90E98001A252F823F0B10B00007B0C0000A5
S1130BA07B0C0000650D0000650D00003B0D00008E
S1130BB0FB78023B072B00F2D98001A252F823F004
S1130BC0E10B0000EB0B0000F50B0000310C000002
S1130BD06D0D00006D0D00006D0D00006D0D000029
S1130BE00423FB610023FB762BE00323FB61012339
S1130BF0FB7626E00223FB610223FB765E485F4915
S1130C00FFF730FCFFF79EFB02465D4B9A4206D984
S1130C105C4A5C4B1B6843F06003136011E0594A63
S1130C20584B1B6823F0600343F02003136008E073
S1130C300123FB610323FB764F485049FFF712FC65
S1130C4000BFFB7E18460121012200F0A1F8FFF746
S1130C5011FD4C4AFB6953624B48FFF70FFE0346F4
S1130C6018464649FFF7FEFB00F0F2F8FFF7C6FA14
S1130C70B860B868FFF7A2FC75E0FB78013B082B6D
S1130C8076D801A252F823F0AD0C0000B30C00009A
S1130C90C30C0000710D0000710D0000D30C0000A6
S1130CA0710D0000710D0000F10C000000237B6148
S1130CB023E000200121012200F06AF802237B6175
S1130CC01BE001200121012200F062F801237B6175
S1130CD013E0FFF793FAB860B8682849FFF7C2FB3E
S1130CE02A4804210122FFF769FB03237B6104E006
S1130CF000237B6101233B6100BFFB68022B0DD104
S1130D002049204B9B6A23F4803323F003037A6940
S1130D101A433B691B0413438B6224E01949194BA2
S1130D209B6A23F4801323F00C037A6992001A431C
S1130D303B691B0513438B6215E0FB78072B02D03C
S1130D40082B07D015E00F4A0E4B1B6823F0805385
S1130D50136006E00B4A0B4B1B6843F0805313608F
S1130D6000BF00E000BFFFF79BFB02E000BF00E014
S1130D7000BF2037BD4680BD01366E0100366E01CE
S1130D800048E80100800C400043020040800C4011
S1130D9080B586B000AF0346FB710B46BB711346AA
S1130DA07B71FB79042B4AD801A252F823F000BFCF
S1130DB0FD0D0000EF0D0000D30D0000C50D000077
S1130DC0E10D000001233B610223FB6001237B61F1
S1130DD01DE004233B610823FB6003237B6116E0D1
S1130DE010233B612023FB6005237B610FE040233C
S1130DF03B618023FB6007237B6108E04FF4807331
S1130E003B614FF40073FB6009237B6100BFBB7936
S1130E10002B0ED00C4A3B6913627B79002B0BD05C
S1130E2000BF0A487969FFF7DFFA0346002BF8D0C0
S1130E3002E0054AFB68136200F00AF800E000BF14
S1130E401837BD4680BD00BF00800C402C800C408C
S1130E5080B400AF034BDB6A034A1360BD465DF800
S1130E60047B704700800C408402002080B487B06B
S1130E7000AFF860B9607A60FB6803F10473DA00CC
S1130E80BB6813449B007B617B697A681A601C37DA
S1130E90BD465DF8047B704780B485B000AFF86050
S1130EA0B9607A60FB681A68BB68DB431A407B68E8
S1130EB01A43FB681A601437BD465DF8047B70471B
S1130EC080B483B000AF03463960FB71FB79002B1B
S1130ED00DD0FB79012B0AD0FB79022B07D0FB79CB
S1130EE0032B04D0FB79042B01D0FB79052B094992
S1130EF0FA793B68012000FA03F318461346DB0035
S1130F0013449B000B44103358600C37BD465DF806
S1130F10047B70470060004080B483B000AF034698
S1130F203960FB71FB79002B0DD0FB79012B0AD0C2
S1130F30FB79022B07D0FB79032B04D0FB79042B1C
S1130F4001D0FB79052B0949FA793B68012000FAA5
S1130F5003F318461346DB0013449B000B44103381
S1130F6018600C37BD465DF8047B70470060004094
S1130F7080B586B000AFB9607A601A460346FB7349
S1130F801346BB73FB7B002B0DD0FB7B012B0AD0DC
S1130F90FB7B022B07D0FB7B032B04D0FB7B042BB6
S1130FA001D0FB7B052B7B68072B0ED87B689B004D
S1130FB01A46072303FA02F1FB7B7A6892009340F6
S1130FC019481A46FFF768FF10E07B68083B7B610D
S1130FD07B699B001A46072303FA02F1FB7B7A69BB
S1130FE09200934011481A46FFF756FFBB7B104806
S1130FF079681A46FFF73AFF97F820300D48796868
S11310001A46FFF733FF0C4A7B68012101FA03F308
S1131010C2F81C3197F82430084879681A46FFF75B
S113102025FF1837BD4680BD0061004004610040C3
S1131030086100400C610040006000401061004005
S113104090B585B000AFB9607B600346FB7313466F
S1131050BB73FB7B002B0DD0FB7B012B0AD0FB7BEE
S1131060022B07D0FB7B032B04D0FB7B042B01D08A
S1131070FB7B052BBB7B002B0DD07B68002B05D0A5
S1131080FB7B1846B968FFF747FF04E0FB7B184673
S1131090B968FFF715FFBB68072B1CD82A4CFA7BED
S11310A02948F97B0B46DB000B449B0003445B6837
S11310B0B968890008460F218140C9430B40B97BB8
S11310C0B8688000814019431346DB0013449B0039
S11310D02344596024E01C4CFA7B1B48F97B0B46E3
S11310E0DB000B449B00034408331968BB6803F11D
S11310F08043083B9B0018460F238340DB43194081
S1131100B87BBB6803F18043083B9B0000FA03F300
S113111019431346DB0013449B002344083319602E
S1131120BB7B002B0DD17B68002B05D0FB7B1846C5
S1131130B968FFF7F1FE04E0FB7B1846B968FFF7D6
S1131140BFFE1437BD4690BD0060004080B485B03A
S113115000AFF860B9607A60FB681A68BB68DB436B
S11311601A407B681A43FB681A601437BD465DF861
S1131170047B704780B586B000AFF860B9607A60D0
S1131180FB70BB68002B03D12448FFF777FBB860E2
S1131190FB78202B0CD0202B02DC002B05D03AE06E
S11311A0402B08D0602B09D035E010237B6108E088
S11311B008237B6105E006237B6102E004237B6155
S11311C000BFBB689A007B69796801FB03F35B0885
S11311D013443B617B697A6802FB03F33A69B2FB0F
S11311E0F3F33B613B69043B3B613B699B013B611E
S11311F03A690B4B13403B61FB681B6823F06002A8
S1131200FB681A60FB681A68FB781A43FB681A606B
S1131210FB683A695A611837BD4680BD40810400B5
S1131220C0FF1F0080B586B000AFF860B9607A6077
S1131230BB68002B03D11648FFF720FBB860BB68DE
S11312405B007B617A687B691344013B7B617A694B
S11312507B68B2FBF3F37B617B69043B7B617B6955
S11312609B017B617B69C0337B617B6923F0FF0356
S11312707B617A69074B13407B61FB681433184622
S113128004497A69FFF762FF1837BD4680BD00BF85
S113129040810400C0FF1F0080B485B000AF7860B7
S11312A00B46FB707B680F4A934207D07B680E4A5B
S11312B0934203D07B680D4A934200D100BFFB7870
S11312C0DB43FB60FB6803F00503FB60FB685A002B
S11312D07B68DA60FA787B68DA601437BD465DF8BB
S11312E0047B704700C0004000C4004000C80040B8
S11312F080B582B000AF786039607B68204A934241
S113130007D07B681F4A934203D07B681E4A9342EE
S113131000D100BF786800F09FF83B689B7C002BED
S113132005D07B681B6843F080427B681A603B6889
S1131330DB7C002B07D03B681B7D43F01003DBB242
S11313401A467B689A653B685B7B1A463B681B8A36
S113135013433A68D2891A437B685A603B685968D8
S11313603B689A683B681B7B7868FFF703FF3B6820
S11313701B781A467B68DA600837BD4680BD00BF1B
S113138000C0004000C4004000C8004080B582B0E6
S113139000AF786039607B682C4A934207D07B6841
S11313A02B4A934203D07B682A4A934200D100BF60
S11313B0786800F051F87B681A683B681B8A43F030
S11313C001039BB219463B689B7B002B02D04FF470
S11313D0806300E000230B431A437B681A607B6838
S11313E01A683B681B7D002B02D04FF0005300E0CD
S11313F000231A437B681A603B689B7C002B07D050
S11314003B68DB7C43F01003DBB21A467B689A65C9
S11314103B681B7B43F480527B685A603B685A6884
S11314203B689B68786811461A46FFF7FBFE3B68E9
S11314305B7B002B02D07B681022DA603B681B7850
S11314401A467B68DA600837BD4680BD00C000409C
S113145000C4004000C8004080B483B000AF78608E
S11314607B68204A934207D07B681F4A934203D08B
S11314707B681E4A934200D100BF7B6840F6AA6293
S1131480DA607B6800221A607B6841F205025A60C8
S11314907B6800229A607B6800225A617B68002284
S11314A0DA647B6841F6F9729A647B6800225A65B3
S11314B07B680C4A934202D17B6800221A657B68E0
S11314C000229A657B68084A934203D07B68074AE6
S11314D0934202D17B680022DA650C37BD465DF881
S11314E0047B704700C0004000C4004000C80040B6
S11314F080B483B000AF78600B46FB7000BF7B689C
S11315001B6903F04003002BF9D0FA787B685A6317
S113151000BF7B681B6903F02003002BF9D07B68B4
S1131520DB69DBB218460C37BD465DF8047B7047B7
S113153080B483B000AF78600B46FB7000BF7B685B
S11315401B6903F04003002BF9D0FA787B685A63D7
S11315500C37BD465DF8047B704700BF80B483B090
S113156000AF0346FB71084997F907305B09FA7924
S113157002F01F02012000FA02F241F823200C3786
S1131580BD465DF8047B704700E100E080B483B0A1
S113159000AF0346FB71094997F907305B09FA79F3
S11315A002F01F02012000FA02F2603341F8232006
S11315B00C37BD465DF8047B704700BF00E100E0D6
S11315C080B483B000AF7860044A7B68C2F81C31F1
S11315D00C37BD465DF8047B704700BF00600040D7
S11315E080B483B000AF78600649064BD3F810216D
S11315F07B68DB431340C1F810310C37BD465DF8FE
S1131600047B70470060004080B483B000AF786012
S11316100649064BD3F810217B681343C1F81031F7
S11316200C37BD465DF8047B704700BF0060004086
S113163080B586B000AFF8607A601A460B46FB723C
S11316401346BB7200233B61FB7A3B740123FB7599
S113165010E0FB7DB97AFA7D8A1AD200796821FA02
S113166002F2D2B207F118010B4403F8082CFB7DF7
S11316700133FB75FA7DBB7A9A42EAD9F8680021F6
S113168000F0F4F8BB7A013307F110021046002190
S11316901A46002300F0FEF8F868012100F0E6F88D
S11316A01837BD4680BD00BF80B586B000AF7860F6
S11316B00B46FB701346BB700023BB810023BB7336
S11316C000237B61FB7843F04003DBB2BB74786892
S11316D0002100F0CBF8BB7807F1120107F10C02EE
S11316E008461146012200F0D5F87868012100F07F
S11316F0BDF80023FB7414E0FB7C07F118021344CB
S113170013F80C3C1946BA78FB7CD31A013BDB0076
S113171001FA03F31A467B6913447B61FB7C0133B2
S1131720FB74FA7CBB789A42E6D37B691846183777
S1131730BD4680BD80B582B000AFFF233B70FF2360
S11317407B70FF23BB70FF23FB70FF233B71FF23E0
S11317507B71FF23BB71FF23FB713B4618460021BD
S11317600822002300F096F80837BD4680BD00BF6C
S113177080B582B000AF78600B4A0B4B5B6843F0D6
S113178001035360094A094B5B6843F0010353604A
S11317907868002100F06AF84FF40070FFF734FF16
S11317A00837BD4680BD00BF000001400004014071
S11317B084B080B582B000AF786007F1140080E88F
S11317C00E00BB6A786807211A460323FFF730FF2F
S11317D0786807210322FFF767FF02467B689A6156
S11317E0FB8D786809211A460223FFF721FF7868E8
S11317F009210222FFF758FF03469AB27B68DA8375
S11318003B8E786819211A460223FFF711FF786886
S113181019210222FFF748FF03469AB27B681A8413
S1131820FB8A786801211A460223FFF701FF7868D2
S113183001210222FFF738FF03469AB27B68DA805F
S11318407B6B786821211A460323FFF7F1FE786841
S113185021210322FFF728FF02467B685A620837DA
S1131860BD46BDE8804004B0704700BF80B582B07B
S113187000AF786039607B6893F830207B6893F818
S1131880313019463B6810460422FFF7D9FB08376C
S1131890BD4680BD80B584B000AFF860B9607A60A1
S11318A03B600BE0FB681B7810481946FFF720FEED
S11318B0FB680133FB607B68013B7B607B68002B2A
S11318C0F0DC0DE009480021FFF712FE03461A463A
S11318D0BB681A70BB680133BB603B68013B3B606B
S11318E03B68002BEEDC1037BD4680BD00C00040D5
S11318F0B0B586B000AF1A4B3C461D460FCD0FC4A1
S113190095E8030084E8030016480121FEF74CFF24
S11319100420072104220023FFF792FB0420062160
S113192001220023FFF78CFB04200521042201235C
S1131930FFF786FB0C4B1B685B6ABB600123BB7320
S11319404FF440733B823B4608481946FFF71EFD9F
S1131950064B40F20B125A651837BD46B0BD00BFA6
S1131960C0230000000204003800002000C0004032
S113197080B582B002AF0420092102220123FFF7BF
S11319805FFB012300930023019304200921092212
S11319900023FFF7EDFA0B20FFF7F8FD0B20FFF70C
S11319A0DDFDBD4680BD00BF80B582B000AF03231E
S11319B0FB712B4BD3F81431B3F5007F00D04BE00F
S11319C04FF40070FFF70CFE264B1B685B68264A39
S11319D052F8233018460021FFF748FF4223BB7119
S11319E022481E21FFF7A4FDBB7921481946FFF7C1
S11319F07FFD0DE01E480021FFF77AFD03467B7151
S1131A007B791A481946FFF793FDFB79013BFB717B
S1131A10FB79002BEED1174B1B680133154A136079
S1131A20104B1B685B68104A52F82330184601219A
S1131A30FFF71CFF0B4B1B685B680B4A52F8233003
S1131A4018460021FFF712FF4FF40070FFF7B8FDAE
S1131A504FF40070FFF7D8FD0837BD4680BD00BFC6
S1131A600060004038000020DC01002000C4004079
S1131A7000C000408802002080B483B000AF034659
S1131A80FB71084997F907305B09FA7902F01F02E4
S1131A90012000FA02F241F823200C37BD465DF81C
S1131AA0047B704700E100E080B483B000AF0346DC
S1131AB0FB71094997F907305B09FA7902F01F02B3
S1131AC0012000FA02F2603341F823200C37BD46AE
S1131AD05DF8047B704700BF00E100E080B586B08C
S1131AE000AF21480121FEF75FFE032007210422F5
S1131AF00123FFF7A5FA0320062101220023FFF7A3
S1131B009FFA3B4600221A60043300221A60043311
S1131B1000221A60043300221A60043300221A607F
S1131B20043300221A600433104B1B689B6ABB60A9
S1131B3005237B734FF480533B823B460C48194684
S1131B40FFF7D6FB0A4B40F203225A651020FFF739
S1131B50ABFF1020FFF790FF05480521FFF79CFB22
S1131B601837BD4680BD00BF0012040038000020B5
S1131B7000C4004080B483B000AF0346FB71084941
S1131B8097F907305B09FA7902F01F02012000FA85
S1131B9002F241F823200C37BD465DF8047B704700
S1131BA000E100E080B483B000AF7860034A7B6852
S1131BB093630C37BD465DF8047B704700800C408E
S1131BC080B483B000AF78600549054BDA6B7B685D
S1131BD01343CB630C37BD465DF8047B704700BFED
S1131BE000800C4080B400AF034B1B6B1846BD460D
S1131BF05DF8047B704700BF00800C4080B400AFE8
S1131C00BD465DF8047B704780B489B000AFF860CE
S1131C10084611461A4603467B810B463B81134610
S1131C20FB807B89FB820023FB61FB88BB6128E08E
S1131C30FB681B8899B20122BB6902FA03F39BB2C9
S1131C40DB439BB20A4613409BB29AB2FB681A80EC
S1131C50FB681B8899B2FA8AFB6942FA03F303F022
S1131C600102BB6902FA03F39BB20A4613439BB217
S1131C709AB2FB681A80FB690133FB61BB690133CB
S1131C80BB613A89FB699A42D2DC2437BD465DF8D0
S1131C90047B704780B582B000AFFFF7A3FF786084
S1131CA00320FFF77FFF7B6803F00203002B0BD0B8
S1131CB011200421FEF758FF032000210022FFF722
S1131CC067F8034B01221A600837BD4680BD00BF88
S1131CD08C020020B0B5CCB008AFFFF78FFF112005
S1131CE00521FEF741FF34480121FEF75DFD33482D
S1131CF00121FEF759FD32480121FEF755FD002070
S1131D000C2104220123FFF79BF904200D21042256
S1131D100123FFF795F90520032104220123FFF78E
S1131D208FF90520042104220023FFF789F90520F7
S1131D30052104220123FFF783F900200221042254
S1131D400123FFF77DF900200C2104220123FFF772
S1131D5077F90120072104220123FFF771F90220FA
S1131D6001210022FFF714F80220FFF729FF2020A9
S1131D70FFF700FF00BF134B1B68012BFBD1124A76
S1131D80114B1B6823F0030343F0020313600E4A54
S1131D900D4B1B6823F4E00343F4801313600A4AD9
S1131DA0094BD3F8803043F00103C2F8803000239C
S1131DB0C7F80C3118E000BF00D204000052040040
S1131DC0006204008C02002000800C40D54AD7F841
S1131DD00C3152F8233018460121FFF747FDD7F89C
S1131DE00C310133C7F80C31D7F80C31072BEDDD7A
S1131DF002200D2104220123FFF722F9FFF76EFED2
S1131E00FFF776FDFFF796FCFFF7B2FDC64B07F12F
S1131E10DC041D460FCD0FC40FCD0FC495E8070099
S1131E2084E807004FF40463C7F8F03007F1DC03DB
S1131E301C331846012101220B23FFF7E5FE07F1AD
S1131E40DC031C331846002102220923FFF7DCFEC1
S1131E5007F1DC031C331846022102220323FFF797
S1131E60D3FE07F1DC031C331846002103220023B0
S1131E70FFF7CAFE07F1DC030233184601210122F1
S1131E800923FFF7C1FE07F1DC03023318460221E0
S1131E9002220623FFF7B8FE07F1DC0302331846DB
S1131EA0002104220223FFF7AFFE07F1DC03023313
S1131EB01846012101220823FFF7A6FE07F1DC03DF
S1131EC002331846022102220023FFF79DFE974B9E
S1131ED0C7F8FC3007F1B00407F1DC050FCD0FC4DF
S1131EE00FCD0FC495E8070084E8070007F1B0039D
S1131EF01A331846012101220F23FFF785FE07F14B
S1131F00B0031A331846002105220523FFF77CFE8F
S1131F1007F1B0031A331846012105220023FFF705
S1131F2073FE07F1840407F1DC050FCD0FC40FCD58
S1131F300FC495E8070084E8070007F184031A3307
S1131F401846012101220F23FFF75EFE07F18403E7
S1131F501A331846002105220523FFF755FE07F121
S1131F6084031A331846012105220023FFF74CFE8F
S1131F7007F184031C331846012101220B23FFF7C8
S1131F8043FE07F184031C33184601210322002376
S1131F90FFF73AFE07F1580407F1DC050FCD0FC433
S1131FA00FCD0FC495E8070084E8070007F1580334
S1131FB01A331846012101220F23FFF725FE07F1EA
S1131FC058031A331846002105220523FFF71CFE87
S1131FD007F158031A331846012105220023FFF79D
S1131FE013FE07F158031C331846012101220B2369
S1131FF0FFF70AFE07F12C0407F1DC050FCD0FC42F
S11320000FCD0FC495E8070084E8070007F12C03FF
S11320101A331846012101220F23FFF7F5FD07F1BA
S11320202C031A331846002105220523FFF7ECFD83
S113203007F12C031A331846012105220023FFF768
S1132040E3FD3B46384A1C4615460FCD0FC40FCD61
S11320500FC495E8070084E807003B46023318469E
S1132060032102220623FFF7CFFD314A304B1B68C0
S113207023F4403313602E4A2D4B1B6823F0706306
S113208013602B4A2A4B1B6823F003031360284A6E
S1132090274BDB696FEA13436FEA0343D361244A96
S11320A0234BDB691B0C1B0443F00F03D361204A51
S11320B01F4B1B6D23F0030343F0020313651C4AFB
S11320C01B4B1B6D23F4407343F480731365184A50
S11320D0174B5B6D1B0C1B045365154A144B1B6D8E
S11320E043F004031365124A114B5B6D1B0C1B0474
S11320F043F0060353650E4A0D4B9B6A23F4E02319
S113210093620B4A0A4B9B6A23F0071323F4E063A0
S113211043F004039362074A064B1B6823F003034E
S1132120136009E0DC010020D82300001E00060033
S113213000000140000401406E4A6E4B1B6843F0EE
S1132140100313606B4A6B4B1B6823F00803136086
S1132150684A684B1B6823F4403343F4003313602C
S1132160644A644B1B6843F010031360614A614B7B
S11321701B6B23F0030343F0020313635D4A5D4BBF
S11321801B6B43F0040313635A4A5A4B1B6B23F42F
S1132190407343F480731363564A564B1B6B23F40A
S11321A080131363534A534BDB691B0C1B0443F02A
S11321B01303D3614F4A4F4B9B6A23F0071323F455
S11321C0E06343F0010393624A4A4A4B9B6A23F457
S11321D0E02343F4403393624FF6FF73C7F80831AA
S11321E000BFD7F808315A1EC7F80821002BF8D1D0
S11321F06D4607F1BC040FCC0FC594E80F0085E8C9
S11322000F0007F1B0030ECB3B48FFF7D1FA6D4640
S113221007F1BC040FCC0FC594E80F0085E80F004C
S113222007F1B0030ECB3548FFF7C2FA6D4607F14C
S113223090040FCC0FC594E80F0085E80F0007F158
S113224084030ECB2E48FFF7B3FA6D4607F19004D2
S11322500FCC0FC594E80F0085E80F0007F1840345
S11322600ECB2848FFF7A4FA6D4607F138040FCCCB
S11322700FC594E80F0085E80F0007F12C030ECB7F
S11322802148FFF795FA6D4607F164040FCC0FC59A
S113229094E80F0085E80F0007F158030ECB1B48A4
S11322A0FFF786FA6D4607F164040FCC0FC594E876
S11322B00F0085E80F0007F158030ECB1448FFF711
S11322C077FA6D4607F164040FCC0FC594E80F004C
S11322D085E80F0007F158030ECB0E48FFF768FAA4
S11322E00D4B1B685B680D4A52F823301846FFF704
S11322F03FFAFEE7000401403C000020700000208B
S1132300A4000020D80000200C010020400100207F
S113231074010020A801002038000020DC01002006
S113232008B5074B044613B10021AFF30080054BF9
S11323301868836A03B19847204600F033F800BF59
S1132340000000000824000070B50E4B0E4CE41A87
S1132350A41000251E46A54204D056F825309847FF
S11323600135F8E700F020F8084C094BE41AA410F2
S113237000251E46A54204D056F82530984701355D
S1132380F8E770BD5C0200205C02002060020020BF
S11323905C02002002440346934202D003F8011B6E
S11323A0FAE77047FEE700BFF8B500BFF8BC08BC09
S11323B09E467047F8B500BFF8BC08BC9E467047FF
S11323C0050000000000000040420F00050100006D
S11323D000000000000000000000000000000000F9
S11323E000000000000002000000000040000000A7
S11323F000000180600800008001060000008000E9
S11324000000500043000000FC0100200000000018
S10B24102CDDFF7F0100000038
S1132418002D310100800000809FD50002000000DB
S11324280300000003000000000200000100000097
S11324383C0000000B0000001300000040420F00A5
S113244800080700000000000800002054310000C4
S1132458000000000000000000000000000002006E
S11324680000000040000000000001806008000037
S113247880010600000080000000500000000000F9
S113248854320000000000000000000000000000BA
S1132498000002000000000040000000000001806D
S11324A86008000080010600000080000000500061
S11324B80205000053310000000000000000000085
S11324C800000000000002000000000040000000BE
S11324D80000018060080000800106000000800000
S11324E80000500002060000533200000000000003
S11324F800000000000000000000020000000000CE
S1132508400000000000018060080000800106000F
S11325180000800000005000020700004331000062
S1132528000000000000000000000000000002009D
S11325380000000040000000000001806008000066
S1132548800106000000800000005000020C00001A
S113255841580000000000000000000000000000D6
S1132568000002000000000040000000000001809C
S11325786008000080010600000080000000500090
S1132588020E000041590000000000000000000095
S113259800000000000002000000000040000000ED
S11325A8000001806008000080010600000080002F
S11325B800005000020F0000415A00000000000013
S11325C800000000000000000000020000000000FD
S11325D8400000000000018060080000800106003F
S11325E80000800000005000000100003C000020B2
S11325F870000020A4000020D80000200C01002056
S11326084001002074010020A801002000000000FF
S113261800000000000000000000000000000000AE
S11326280000000000000000000000000424000076
S1132638000000000000000000000000000000008E
S1132648000000000000000000000000000000007E
S1132658000000000000000000000000000000006E
S11326680000000000000000000000000501000058
S10B2678E10000000000000075
S90301B14A
